{
  "_format": "hh-sol-artifact-1",
  "contractName": "Submitter",
  "sourceName": "contracts/test-helpers/Submitter.sol",
  "abi": [
    {
      "constant": false,
      "inputs": [
        {
          "name": "memberToKick",
          "type": "address"
        },
        {
          "name": "details",
          "type": "string"
        }
      ],
      "name": "submitGuildKickProposal",
      "outputs": [],
      "payable": false,
      "stateMutability": "nonpayable",
      "type": "function"
    },
    {
      "constant": true,
      "inputs": [],
      "name": "daoCoop",
      "outputs": [
        {
          "name": "",
          "type": "address"
        }
      ],
      "payable": false,
      "stateMutability": "view",
      "type": "function"
    },
    {
      "constant": false,
      "inputs": [
        {
          "name": "applicant",
          "type": "address"
        },
        {
          "name": "sharesRequested",
          "type": "uint256"
        },
        {
          "name": "lootRequested",
          "type": "uint256"
        },
        {
          "name": "tributeOffered",
          "type": "uint256"
        },
        {
          "name": "tributeToken",
          "type": "address"
        },
        {
          "name": "paymentRequested",
          "type": "uint256"
        },
        {
          "name": "paymentToken",
          "type": "address"
        },
        {
          "name": "details",
          "type": "string"
        }
      ],
      "name": "submitProposal",
      "outputs": [],
      "payable": false,
      "stateMutability": "nonpayable",
      "type": "function"
    },
    {
      "constant": false,
      "inputs": [
        {
          "name": "tokenToWhitelist",
          "type": "address"
        },
        {
          "name": "details",
          "type": "string"
        }
      ],
      "name": "submitWhitelistProposal",
      "outputs": [],
      "payable": false,
      "stateMutability": "nonpayable",
      "type": "function"
    },
    {
      "inputs": [
        {
          "name": "molochAddress",
          "type": "address"
        }
      ],
      "payable": false,
      "stateMutability": "nonpayable",
      "type": "constructor"
    },
    {
      "anonymous": false,
      "inputs": [
        {
          "indexed": false,
          "name": "proposalId",
          "type": "uint256"
        }
      ],
      "name": "Submit",
      "type": "event"
    }
  ],
  "bytecode": "0x608060405234801561001057600080fd5b506040516020806106ee8339810180604052602081101561003057600080fd5b505160008054600160a060020a03909216600160a060020a031990921691909117905561068c806100626000396000f3fe608060405234801561001057600080fd5b5060043610610068577c01000000000000000000000000000000000000000000000000000000006000350463115b2d18811461006d5780633f92846d14610125578063590f940b14610149578063feb7ea1d14610229575b600080fd5b6101236004803603604081101561008357600080fd5b600160a060020a0382351691908101906040810160208201356401000000008111156100ae57600080fd5b8201836020820111156100c057600080fd5b803590602001918460018302840111640100000000831117156100e257600080fd5b91908080601f0160208091040260200160405190810160405280939291908181526020018383808284376000920191909152509295506102df945050505050565b005b61012d610418565b60408051600160a060020a039092168252519081900360200190f35b610123600480360361010081101561016057600080fd5b600160a060020a038235811692602081013592604082013592606083013592608081013582169260a08201359260c0830135169190810190610100810160e08201356401000000008111156101b457600080fd5b8201836020820111156101c657600080fd5b803590602001918460018302840111640100000000831117156101e857600080fd5b91908080601f016020809104026020016040519081016040528093929190818152602001838380828437600092019190915250929550610427945050505050565b6101236004803603604081101561023f57600080fd5b600160a060020a03823516919081019060408101602082013564010000000081111561026a57600080fd5b82018360208201111561027c57600080fd5b8035906020019184600183028401116401000000008311171561029e57600080fd5b91908080601f0160208091040260200160405190810160405280939291908181526020018383808284376000920191909152509295506105dd945050505050565b60008054604080517f115b2d18000000000000000000000000000000000000000000000000000000008152600160a060020a038681166004830190815260248301938452865160448401528651919094169363115b2d18938893889360649091019060208501908083838c5b8381101561036357818101518382015260200161034b565b50505050905090810190601f1680156103905780820380516001836020036101000a031916815260200191505b509350505050602060405180830381600087803b1580156103b057600080fd5b505af11580156103c4573d6000803e3d6000fd5b505050506040513d60208110156103da57600080fd5b50516040805182815290519192507f08324b3d745b914e3abd4ffbfead91e3b78391a98c173202129215ab933adfbe919081900360200190a1505050565b600054600160a060020a031681565b60008060009054906101000a9004600160a060020a0316600160a060020a031663590f940b8a8a8a8a8a8a8a8a6040518963ffffffff167c01000000000000000000000000000000000000000000000000000000000281526004018089600160a060020a0316600160a060020a0316815260200188815260200187815260200186815260200185600160a060020a0316600160a060020a0316815260200184815260200183600160a060020a0316600160a060020a0316815260200180602001828103825283818151815260200191508051906020019080838360005b8381101561051c578181015183820152602001610504565b50505050905090810190601f1680156105495780820380516001836020036101000a031916815260200191505b509950505050505050505050602060405180830381600087803b15801561056f57600080fd5b505af1158015610583573d6000803e3d6000fd5b505050506040513d602081101561059957600080fd5b50516040805182815290519192507f08324b3d745b914e3abd4ffbfead91e3b78391a98c173202129215ab933adfbe919081900360200190a1505050505050505050565b60008054604080517ffeb7ea1d000000000000000000000000000000000000000000000000000000008152600160a060020a038681166004830190815260248301938452865160448401528651919094169363feb7ea1d938893889360649091019060208501908083838c8381101561036357818101518382015260200161034b56fea165627a7a723058205a30a39e1e2fcc0fe788cfd9b41257e8a060f89c8743cc19e8699549d9749b150029",
  "linkReferences": {},
  "deployedLinkReferences": {}
}